{
  "_format": "hh-sol-artifact-1",
  "contractName": "L1Token",
  "sourceName": "contracts/L1Token.sol",
  "abi": [
    {
      "inputs": [],
      "stateMutability": "nonpayable",
      "type": "constructor"
    },
    {
      "anonymous": false,
      "inputs": [
        {
          "indexed": true,
          "internalType": "address",
          "name": "owner",
          "type": "address"
        },
        {
          "indexed": true,
          "internalType": "address",
          "name": "approved",
          "type": "address"
        },
        {
          "indexed": true,
          "internalType": "uint256",
          "name": "tokenId",
          "type": "uint256"
        }
      ],
      "name": "Approval",
      "type": "event"
    },
    {
      "anonymous": false,
      "inputs": [
        {
          "indexed": true,
          "internalType": "address",
          "name": "owner",
          "type": "address"
        },
        {
          "indexed": true,
          "internalType": "address",
          "name": "operator",
          "type": "address"
        },
        {
          "indexed": false,
          "internalType": "bool",
          "name": "approved",
          "type": "bool"
        }
      ],
      "name": "ApprovalForAll",
      "type": "event"
    },
    {
      "anonymous": false,
      "inputs": [
        {
          "indexed": true,
          "internalType": "bytes32",
          "name": "role",
          "type": "bytes32"
        },
        {
          "indexed": true,
          "internalType": "bytes32",
          "name": "previousAdminRole",
          "type": "bytes32"
        },
        {
          "indexed": true,
          "internalType": "bytes32",
          "name": "newAdminRole",
          "type": "bytes32"
        }
      ],
      "name": "RoleAdminChanged",
      "type": "event"
    },
    {
      "anonymous": false,
      "inputs": [
        {
          "indexed": true,
          "internalType": "bytes32",
          "name": "role",
          "type": "bytes32"
        },
        {
          "indexed": true,
          "internalType": "address",
          "name": "account",
          "type": "address"
        },
        {
          "indexed": true,
          "internalType": "address",
          "name": "sender",
          "type": "address"
        }
      ],
      "name": "RoleGranted",
      "type": "event"
    },
    {
      "anonymous": false,
      "inputs": [
        {
          "indexed": true,
          "internalType": "bytes32",
          "name": "role",
          "type": "bytes32"
        },
        {
          "indexed": true,
          "internalType": "address",
          "name": "account",
          "type": "address"
        },
        {
          "indexed": true,
          "internalType": "address",
          "name": "sender",
          "type": "address"
        }
      ],
      "name": "RoleRevoked",
      "type": "event"
    },
    {
      "anonymous": false,
      "inputs": [
        {
          "indexed": true,
          "internalType": "address",
          "name": "from",
          "type": "address"
        },
        {
          "indexed": true,
          "internalType": "address",
          "name": "to",
          "type": "address"
        },
        {
          "indexed": true,
          "internalType": "uint256",
          "name": "tokenId",
          "type": "uint256"
        }
      ],
      "name": "Transfer",
      "type": "event"
    },
    {
      "inputs": [],
      "name": "DEFAULT_ADMIN_ROLE",
      "outputs": [
        {
          "internalType": "bytes32",
          "name": "",
          "type": "bytes32"
        }
      ],
      "stateMutability": "view",
      "type": "function"
    },
    {
      "inputs": [
        {
          "internalType": "address",
          "name": "to",
          "type": "address"
        },
        {
          "internalType": "uint256",
          "name": "tokenId",
          "type": "uint256"
        }
      ],
      "name": "approve",
      "outputs": [],
      "stateMutability": "nonpayable",
      "type": "function"
    },
    {
      "inputs": [
        {
          "internalType": "address",
          "name": "owner",
          "type": "address"
        }
      ],
      "name": "balanceOf",
      "outputs": [
        {
          "internalType": "uint256",
          "name": "",
          "type": "uint256"
        }
      ],
      "stateMutability": "view",
      "type": "function"
    },
    {
      "inputs": [
        {
          "internalType": "uint256",
          "name": "tokenId",
          "type": "uint256"
        }
      ],
      "name": "getApproved",
      "outputs": [
        {
          "internalType": "address",
          "name": "",
          "type": "address"
        }
      ],
      "stateMutability": "view",
      "type": "function"
    },
    {
      "inputs": [
        {
          "internalType": "bytes32",
          "name": "role",
          "type": "bytes32"
        }
      ],
      "name": "getRoleAdmin",
      "outputs": [
        {
          "internalType": "bytes32",
          "name": "",
          "type": "bytes32"
        }
      ],
      "stateMutability": "view",
      "type": "function"
    },
    {
      "inputs": [
        {
          "internalType": "bytes32",
          "name": "role",
          "type": "bytes32"
        },
        {
          "internalType": "address",
          "name": "account",
          "type": "address"
        }
      ],
      "name": "grantRole",
      "outputs": [],
      "stateMutability": "nonpayable",
      "type": "function"
    },
    {
      "inputs": [
        {
          "internalType": "bytes32",
          "name": "role",
          "type": "bytes32"
        },
        {
          "internalType": "address",
          "name": "account",
          "type": "address"
        }
      ],
      "name": "hasRole",
      "outputs": [
        {
          "internalType": "bool",
          "name": "",
          "type": "bool"
        }
      ],
      "stateMutability": "view",
      "type": "function"
    },
    {
      "inputs": [
        {
          "internalType": "address",
          "name": "owner",
          "type": "address"
        },
        {
          "internalType": "address",
          "name": "operator",
          "type": "address"
        }
      ],
      "name": "isApprovedForAll",
      "outputs": [
        {
          "internalType": "bool",
          "name": "",
          "type": "bool"
        }
      ],
      "stateMutability": "view",
      "type": "function"
    },
    {
      "inputs": [
        {
          "internalType": "address",
          "name": "to",
          "type": "address"
        }
      ],
      "name": "mint",
      "outputs": [],
      "stateMutability": "nonpayable",
      "type": "function"
    },
    {
      "inputs": [],
      "name": "name",
      "outputs": [
        {
          "internalType": "string",
          "name": "",
          "type": "string"
        }
      ],
      "stateMutability": "view",
      "type": "function"
    },
    {
      "inputs": [
        {
          "internalType": "uint256",
          "name": "tokenId",
          "type": "uint256"
        }
      ],
      "name": "ownerOf",
      "outputs": [
        {
          "internalType": "address",
          "name": "",
          "type": "address"
        }
      ],
      "stateMutability": "view",
      "type": "function"
    },
    {
      "inputs": [
        {
          "internalType": "bytes32",
          "name": "role",
          "type": "bytes32"
        },
        {
          "internalType": "address",
          "name": "account",
          "type": "address"
        }
      ],
      "name": "renounceRole",
      "outputs": [],
      "stateMutability": "nonpayable",
      "type": "function"
    },
    {
      "inputs": [
        {
          "internalType": "bytes32",
          "name": "role",
          "type": "bytes32"
        },
        {
          "internalType": "address",
          "name": "account",
          "type": "address"
        }
      ],
      "name": "revokeRole",
      "outputs": [],
      "stateMutability": "nonpayable",
      "type": "function"
    },
    {
      "inputs": [
        {
          "internalType": "address",
          "name": "from",
          "type": "address"
        },
        {
          "internalType": "address",
          "name": "to",
          "type": "address"
        },
        {
          "internalType": "uint256",
          "name": "tokenId",
          "type": "uint256"
        }
      ],
      "name": "safeTransferFrom",
      "outputs": [],
      "stateMutability": "nonpayable",
      "type": "function"
    },
    {
      "inputs": [
        {
          "internalType": "address",
          "name": "from",
          "type": "address"
        },
        {
          "internalType": "address",
          "name": "to",
          "type": "address"
        },
        {
          "internalType": "uint256",
          "name": "tokenId",
          "type": "uint256"
        },
        {
          "internalType": "bytes",
          "name": "data",
          "type": "bytes"
        }
      ],
      "name": "safeTransferFrom",
      "outputs": [],
      "stateMutability": "nonpayable",
      "type": "function"
    },
    {
      "inputs": [
        {
          "internalType": "address",
          "name": "operator",
          "type": "address"
        },
        {
          "internalType": "bool",
          "name": "approved",
          "type": "bool"
        }
      ],
      "name": "setApprovalForAll",
      "outputs": [],
      "stateMutability": "nonpayable",
      "type": "function"
    },
    {
      "inputs": [
        {
          "internalType": "bytes4",
          "name": "interfaceId",
          "type": "bytes4"
        }
      ],
      "name": "supportsInterface",
      "outputs": [
        {
          "internalType": "bool",
          "name": "",
          "type": "bool"
        }
      ],
      "stateMutability": "view",
      "type": "function"
    },
    {
      "inputs": [],
      "name": "symbol",
      "outputs": [
        {
          "internalType": "string",
          "name": "",
          "type": "string"
        }
      ],
      "stateMutability": "view",
      "type": "function"
    },
    {
      "inputs": [
        {
          "internalType": "uint256",
          "name": "index",
          "type": "uint256"
        }
      ],
      "name": "tokenByIndex",
      "outputs": [
        {
          "internalType": "uint256",
          "name": "",
          "type": "uint256"
        }
      ],
      "stateMutability": "view",
      "type": "function"
    },
    {
      "inputs": [
        {
          "internalType": "address",
          "name": "owner",
          "type": "address"
        },
        {
          "internalType": "uint256",
          "name": "index",
          "type": "uint256"
        }
      ],
      "name": "tokenOfOwnerByIndex",
      "outputs": [
        {
          "internalType": "uint256",
          "name": "",
          "type": "uint256"
        }
      ],
      "stateMutability": "view",
      "type": "function"
    },
    {
      "inputs": [
        {
          "internalType": "uint256",
          "name": "tokenId",
          "type": "uint256"
        }
      ],
      "name": "tokenURI",
      "outputs": [
        {
          "internalType": "string",
          "name": "",
          "type": "string"
        }
      ],
      "stateMutability": "view",
      "type": "function"
    },
    {
      "inputs": [],
      "name": "totalSupply",
      "outputs": [
        {
          "internalType": "uint256",
          "name": "",
          "type": "uint256"
        }
      ],
      "stateMutability": "view",
      "type": "function"
    },
    {
      "inputs": [
        {
          "internalType": "address",
          "name": "from",
          "type": "address"
        },
        {
          "internalType": "address",
          "name": "to",
          "type": "address"
        },
        {
          "internalType": "uint256",
          "name": "tokenId",
          "type": "uint256"
        }
      ],
      "name": "transferFrom",
      "outputs": [],
      "stateMutability": "nonpayable",
      "type": "function"
    }
  ],
  "bytecode": "0x60806040523480156200001157600080fd5b506040518060400160405280600c81526020017f5472616e73616374614e465400000000000000000000000000000000000000008152506040518060400160405280600681526020017f54524e534354000000000000000000000000000000000000000000000000000081525081600090816200008f919062000324565b508060019081620000a1919062000324565b5050506200040b565b600081519050919050565b7f4e487b7100000000000000000000000000000000000000000000000000000000600052604160045260246000fd5b7f4e487b7100000000000000000000000000000000000000000000000000000000600052602260045260246000fd5b600060028204905060018216806200012c57607f821691505b602082108103620001425762000141620000e4565b5b50919050565b60008190508160005260206000209050919050565b60006020601f8301049050919050565b600082821b905092915050565b600060088302620001ac7fffffffffffffffffffffffffffffffffffffffffffffffffffffffffffffffff826200016d565b620001b886836200016d565b95508019841693508086168417925050509392505050565b6000819050919050565b6000819050919050565b600062000205620001ff620001f984620001d0565b620001da565b620001d0565b9050919050565b6000819050919050565b6200022183620001e4565b6200023962000230826200020c565b8484546200017a565b825550505050565b600090565b6200025062000241565b6200025d81848462000216565b505050565b5b8181101562000285576200027960008262000246565b60018101905062000263565b5050565b601f821115620002d4576200029e8162000148565b620002a9846200015d565b81016020851015620002b9578190505b620002d1620002c8856200015d565b83018262000262565b50505b505050565b600082821c905092915050565b6000620002f960001984600802620002d9565b1980831691505092915050565b6000620003148383620002e6565b9150826002028217905092915050565b6200032f82620000aa565b67ffffffffffffffff8111156200034b576200034a620000b5565b5b62000357825462000113565b6200036482828562000289565b600060209050601f8311600181146200039c576000841562000387578287015190505b62000393858262000306565b86555062000403565b601f198416620003ac8662000148565b60005b82811015620003d657848901518255600182019150602085019450602081019050620003af565b86831015620003f65784890151620003f2601f891682620002e6565b8355505b6001600288020188555050505b505050505050565b6138ee806200041b6000396000f3fe608060405234801561001057600080fd5b506004361061014d5760003560e01c80634f6ccce7116100c3578063a217fddf1161007c578063a217fddf146103d4578063a22cb465146103f2578063b88d4fde1461040e578063c87b56dd1461042a578063d547741f1461045a578063e985e9c5146104765761014d565b80634f6ccce7146102da5780636352211e1461030a5780636a6278421461033a57806370a082311461035657806391d148541461038657806395d89b41146103b65761014d565b806323b872dd1161011557806323b872dd1461020a578063248a9ca3146102265780632f2ff15d146102565780632f745c591461027257806336568abe146102a257806342842e0e146102be5761014d565b806301ffc9a71461015257806306fdde0314610182578063081812fc146101a0578063095ea7b3146101d057806318160ddd146101ec575b600080fd5b61016c60048036038101906101679190612637565b6104a6565b604051610179919061267f565b60405180910390f35b61018a6104b8565b604051610197919061272a565b60405180910390f35b6101ba60048036038101906101b59190612782565b61054a565b6040516101c791906127f0565b60405180910390f35b6101ea60048036038101906101e59190612837565b610590565b005b6101f46106a7565b6040516102019190612886565b60405180910390f35b610224600480360381019061021f91906128a1565b6106b4565b005b610240600480360381019061023b919061292a565b610714565b60405161024d9190612966565b60405180910390f35b610270600480360381019061026b9190612981565b610734565b005b61028c60048036038101906102879190612837565b610755565b6040516102999190612886565b60405180910390f35b6102bc60048036038101906102b79190612981565b6107fa565b005b6102d860048036038101906102d391906128a1565b61087d565b005b6102f460048036038101906102ef9190612782565b61089d565b6040516103019190612886565b60405180910390f35b610324600480360381019061031f9190612782565b61090e565b60405161033191906127f0565b60405180910390f35b610354600480360381019061034f91906129c1565b610994565b005b610370600480360381019061036b91906129c1565b6109ae565b60405161037d9190612886565b60405180910390f35b6103a0600480360381019061039b9190612981565b610a65565b6040516103ad919061267f565b60405180910390f35b6103be610ad0565b6040516103cb919061272a565b60405180910390f35b6103dc610b62565b6040516103e99190612966565b60405180910390f35b61040c60048036038101906104079190612a1a565b610b69565b005b61042860048036038101906104239190612b8f565b610b7f565b005b610444600480360381019061043f9190612782565b610be1565b604051610451919061272a565b60405180910390f35b610474600480360381019061046f9190612981565b610c49565b005b610490600480360381019061048b9190612c12565b610c6a565b60405161049d919061267f565b60405180910390f35b60006104b182610cfe565b9050919050565b6060600080546104c790612c81565b80601f01602080910402602001604051908101604052809291908181526020018280546104f390612c81565b80156105405780601f1061051557610100808354040283529160200191610540565b820191906000526020600020905b81548152906001019060200180831161052357829003601f168201915b5050505050905090565b600061055582610d78565b6004600083815260200190815260200160002060009054906101000a900473ffffffffffffffffffffffffffffffffffffffff169050919050565b600061059b8261090e565b90508073ffffffffffffffffffffffffffffffffffffffff168373ffffffffffffffffffffffffffffffffffffffff160361060b576040517f08c379a000000000000000000000000000000000000000000000000000000000815260040161060290612d24565b60405180910390fd5b8073ffffffffffffffffffffffffffffffffffffffff1661062a610dc3565b73ffffffffffffffffffffffffffffffffffffffff161480610659575061065881610653610dc3565b610c6a565b5b610698576040517f08c379a000000000000000000000000000000000000000000000000000000000815260040161068f90612db6565b60405180910390fd5b6106a28383610dcb565b505050565b6000600880549050905090565b6106c56106bf610dc3565b82610e84565b610704576040517f08c379a00000000000000000000000000000000000000000000000000000000081526004016106fb90612e48565b60405180910390fd5b61070f838383610f19565b505050565b6000600a6000838152602001908152602001600020600101549050919050565b61073d82610714565b61074681611212565b6107508383611226565b505050565b6000610760836109ae565b82106107a1576040517f08c379a000000000000000000000000000000000000000000000000000000000815260040161079890612eda565b60405180910390fd5b600660008473ffffffffffffffffffffffffffffffffffffffff1673ffffffffffffffffffffffffffffffffffffffff168152602001908152602001600020600083815260200190815260200160002054905092915050565b610802610dc3565b73ffffffffffffffffffffffffffffffffffffffff168173ffffffffffffffffffffffffffffffffffffffff161461086f576040517f08c379a000000000000000000000000000000000000000000000000000000000815260040161086690612f6c565b60405180910390fd5b6108798282611307565b5050565b61089883838360405180602001604052806000815250610b7f565b505050565b60006108a76106a7565b82106108e8576040517f08c379a00000000000000000000000000000000000000000000000000000000081526004016108df90612ffe565b60405180910390fd5b600882815481106108fc576108fb61301e565b5b90600052602060002001549050919050565b60008061091a836113e9565b9050600073ffffffffffffffffffffffffffffffffffffffff168173ffffffffffffffffffffffffffffffffffffffff160361098b576040517f08c379a000000000000000000000000000000000000000000000000000000000815260040161098290613099565b60405180910390fd5b80915050919050565b600061099e6106a7565b90506109aa8282611426565b5050565b60008073ffffffffffffffffffffffffffffffffffffffff168273ffffffffffffffffffffffffffffffffffffffff1603610a1e576040517f08c379a0000000000000000000000000000000000000000000000000000000008152600401610a159061312b565b60405180910390fd5b600360008373ffffffffffffffffffffffffffffffffffffffff1673ffffffffffffffffffffffffffffffffffffffff168152602001908152602001600020549050919050565b6000600a600084815260200190815260200160002060000160008373ffffffffffffffffffffffffffffffffffffffff1673ffffffffffffffffffffffffffffffffffffffff16815260200190815260200160002060009054906101000a900460ff16905092915050565b606060018054610adf90612c81565b80601f0160208091040260200160405190810160405280929190818152602001828054610b0b90612c81565b8015610b585780601f10610b2d57610100808354040283529160200191610b58565b820191906000526020600020905b815481529060010190602001808311610b3b57829003601f168201915b5050505050905090565b6000801b81565b610b7b610b74610dc3565b8383611444565b5050565b610b90610b8a610dc3565b83610e84565b610bcf576040517f08c379a0000000000000000000000000000000000000000000000000000000008152600401610bc690612e48565b60405180910390fd5b610bdb848484846115b0565b50505050565b6060610bec82610d78565b6000610bf661160c565b90506000815111610c165760405180602001604052806000815250610c41565b80610c2084611623565b604051602001610c31929190613187565b6040516020818303038152906040525b915050919050565b610c5282610714565b610c5b81611212565b610c658383611307565b505050565b6000600560008473ffffffffffffffffffffffffffffffffffffffff1673ffffffffffffffffffffffffffffffffffffffff16815260200190815260200160002060008373ffffffffffffffffffffffffffffffffffffffff1673ffffffffffffffffffffffffffffffffffffffff16815260200190815260200160002060009054906101000a900460ff16905092915050565b60007f7965db0b000000000000000000000000000000000000000000000000000000007bffffffffffffffffffffffffffffffffffffffffffffffffffffffff1916827bffffffffffffffffffffffffffffffffffffffffffffffffffffffff19161480610d715750610d70826116f1565b5b9050919050565b610d818161176b565b610dc0576040517f08c379a0000000000000000000000000000000000000000000000000000000008152600401610db790613099565b60405180910390fd5b50565b600033905090565b816004600083815260200190815260200160002060006101000a81548173ffffffffffffffffffffffffffffffffffffffff021916908373ffffffffffffffffffffffffffffffffffffffff160217905550808273ffffffffffffffffffffffffffffffffffffffff16610e3e8361090e565b73ffffffffffffffffffffffffffffffffffffffff167f8c5be1e5ebec7d5bd14f71427d1e84f3dd0314c0f7b2291e5b200ac8c7c3b92560405160405180910390a45050565b600080610e908361090e565b90508073ffffffffffffffffffffffffffffffffffffffff168473ffffffffffffffffffffffffffffffffffffffff161480610ed25750610ed18185610c6a565b5b80610f1057508373ffffffffffffffffffffffffffffffffffffffff16610ef88461054a565b73ffffffffffffffffffffffffffffffffffffffff16145b91505092915050565b8273ffffffffffffffffffffffffffffffffffffffff16610f398261090e565b73ffffffffffffffffffffffffffffffffffffffff1614610f8f576040517f08c379a0000000000000000000000000000000000000000000000000000000008152600401610f869061321d565b60405180910390fd5b600073ffffffffffffffffffffffffffffffffffffffff168273ffffffffffffffffffffffffffffffffffffffff1603610ffe576040517f08c379a0000000000000000000000000000000000000000000000000000000008152600401610ff5906132af565b60405180910390fd5b61100b83838360016117ac565b8273ffffffffffffffffffffffffffffffffffffffff1661102b8261090e565b73ffffffffffffffffffffffffffffffffffffffff1614611081576040517f08c379a00000000000000000000000000000000000000000000000000000000081526004016110789061321d565b60405180910390fd5b6004600082815260200190815260200160002060006101000a81549073ffffffffffffffffffffffffffffffffffffffff02191690556001600360008573ffffffffffffffffffffffffffffffffffffffff1673ffffffffffffffffffffffffffffffffffffffff168152602001908152602001600020600082825403925050819055506001600360008473ffffffffffffffffffffffffffffffffffffffff1673ffffffffffffffffffffffffffffffffffffffff16815260200190815260200160002060008282540192505081905550816002600083815260200190815260200160002060006101000a81548173ffffffffffffffffffffffffffffffffffffffff021916908373ffffffffffffffffffffffffffffffffffffffff160217905550808273ffffffffffffffffffffffffffffffffffffffff168473ffffffffffffffffffffffffffffffffffffffff167fddf252ad1be2c89b69c2b068fc378daa952ba7f163c4a11628f55a4df523b3ef60405160405180910390a461120d838383600161190a565b505050565b6112238161121e610dc3565b611910565b50565b6112308282610a65565b611303576001600a600084815260200190815260200160002060000160008373ffffffffffffffffffffffffffffffffffffffff1673ffffffffffffffffffffffffffffffffffffffff16815260200190815260200160002060006101000a81548160ff0219169083151502179055506112a8610dc3565b73ffffffffffffffffffffffffffffffffffffffff168173ffffffffffffffffffffffffffffffffffffffff16837f2f8788117e7eff1d82e926ec794901d17c78024a50270940304540a733656f0d60405160405180910390a45b5050565b6113118282610a65565b156113e5576000600a600084815260200190815260200160002060000160008373ffffffffffffffffffffffffffffffffffffffff1673ffffffffffffffffffffffffffffffffffffffff16815260200190815260200160002060006101000a81548160ff02191690831515021790555061138a610dc3565b73ffffffffffffffffffffffffffffffffffffffff168173ffffffffffffffffffffffffffffffffffffffff16837ff6391f5c32d9c69d2a47ea670b442974b53935d1edc7fd64eb21e047a839171b60405160405180910390a45b5050565b60006002600083815260200190815260200160002060009054906101000a900473ffffffffffffffffffffffffffffffffffffffff169050919050565b611440828260405180602001604052806000815250611995565b5050565b8173ffffffffffffffffffffffffffffffffffffffff168373ffffffffffffffffffffffffffffffffffffffff16036114b2576040517f08c379a00000000000000000000000000000000000000000000000000000000081526004016114a99061331b565b60405180910390fd5b80600560008573ffffffffffffffffffffffffffffffffffffffff1673ffffffffffffffffffffffffffffffffffffffff16815260200190815260200160002060008473ffffffffffffffffffffffffffffffffffffffff1673ffffffffffffffffffffffffffffffffffffffff16815260200190815260200160002060006101000a81548160ff0219169083151502179055508173ffffffffffffffffffffffffffffffffffffffff168373ffffffffffffffffffffffffffffffffffffffff167f17307eab39ab6107e8899845ad3d59bd9653f200f220920489ca2b5937696c31836040516115a3919061267f565b60405180910390a3505050565b6115bb848484610f19565b6115c7848484846119f0565b611606576040517f08c379a00000000000000000000000000000000000000000000000000000000081526004016115fd906133ad565b60405180910390fd5b50505050565b606060405180602001604052806000815250905090565b60606000600161163284611b77565b01905060008167ffffffffffffffff81111561165157611650612a64565b5b6040519080825280601f01601f1916602001820160405280156116835781602001600182028036833780820191505090505b509050600082602001820190505b6001156116e6578080600190039150507f3031323334353637383961626364656600000000000000000000000000000000600a86061a8153600a85816116da576116d96133cd565b5b04945060008503611691575b819350505050919050565b60007f780e9d63000000000000000000000000000000000000000000000000000000007bffffffffffffffffffffffffffffffffffffffffffffffffffffffff1916827bffffffffffffffffffffffffffffffffffffffffffffffffffffffff19161480611764575061176382611cca565b5b9050919050565b60008073ffffffffffffffffffffffffffffffffffffffff1661178d836113e9565b73ffffffffffffffffffffffffffffffffffffffff1614159050919050565b6117b884848484611dac565b60018111156117fc576040517f08c379a00000000000000000000000000000000000000000000000000000000081526004016117f39061346e565b60405180910390fd5b6000829050600073ffffffffffffffffffffffffffffffffffffffff168573ffffffffffffffffffffffffffffffffffffffff16036118435761183e81611db2565b611882565b8373ffffffffffffffffffffffffffffffffffffffff168573ffffffffffffffffffffffffffffffffffffffff1614611881576118808582611dfb565b5b5b600073ffffffffffffffffffffffffffffffffffffffff168473ffffffffffffffffffffffffffffffffffffffff16036118c4576118bf81611f68565b611903565b8473ffffffffffffffffffffffffffffffffffffffff168473ffffffffffffffffffffffffffffffffffffffff1614611902576119018482612039565b5b5b5050505050565b50505050565b61191a8282610a65565b61199157611927816120b8565b6119358360001c60206120e5565b604051602001611946929190613526565b6040516020818303038152906040526040517f08c379a0000000000000000000000000000000000000000000000000000000008152600401611988919061272a565b60405180910390fd5b5050565b61199f8383612321565b6119ac60008484846119f0565b6119eb576040517f08c379a00000000000000000000000000000000000000000000000000000000081526004016119e2906133ad565b60405180910390fd5b505050565b6000611a118473ffffffffffffffffffffffffffffffffffffffff1661253e565b15611b6a578373ffffffffffffffffffffffffffffffffffffffff1663150b7a02611a3a610dc3565b8786866040518563ffffffff1660e01b8152600401611a5c94939291906135b5565b6020604051808303816000875af1925050508015611a9857506040513d601f19601f82011682018060405250810190611a959190613616565b60015b611b1a573d8060008114611ac8576040519150601f19603f3d011682016040523d82523d6000602084013e611acd565b606091505b506000815103611b12576040517f08c379a0000000000000000000000000000000000000000000000000000000008152600401611b09906133ad565b60405180910390fd5b805181602001fd5b63150b7a0260e01b7bffffffffffffffffffffffffffffffffffffffffffffffffffffffff1916817bffffffffffffffffffffffffffffffffffffffffffffffffffffffff191614915050611b6f565b600190505b949350505050565b600080600090507a184f03e93ff9f4daa797ed6e38ed64bf6a1f0100000000000000008310611bd5577a184f03e93ff9f4daa797ed6e38ed64bf6a1f0100000000000000008381611bcb57611bca6133cd565b5b0492506040810190505b6d04ee2d6d415b85acef81000000008310611c12576d04ee2d6d415b85acef81000000008381611c0857611c076133cd565b5b0492506020810190505b662386f26fc100008310611c4157662386f26fc100008381611c3757611c366133cd565b5b0492506010810190505b6305f5e1008310611c6a576305f5e1008381611c6057611c5f6133cd565b5b0492506008810190505b6127108310611c8f576127108381611c8557611c846133cd565b5b0492506004810190505b60648310611cb25760648381611ca857611ca76133cd565b5b0492506002810190505b600a8310611cc1576001810190505b80915050919050565b60007f80ac58cd000000000000000000000000000000000000000000000000000000007bffffffffffffffffffffffffffffffffffffffffffffffffffffffff1916827bffffffffffffffffffffffffffffffffffffffffffffffffffffffff19161480611d9557507f5b5e139f000000000000000000000000000000000000000000000000000000007bffffffffffffffffffffffffffffffffffffffffffffffffffffffff1916827bffffffffffffffffffffffffffffffffffffffffffffffffffffffff1916145b80611da55750611da482612561565b5b9050919050565b50505050565b6008805490506009600083815260200190815260200160002081905550600881908060018154018082558091505060019003906000526020600020016000909190919091505550565b60006001611e08846109ae565b611e129190613672565b9050600060076000848152602001908152602001600020549050818114611ef7576000600660008673ffffffffffffffffffffffffffffffffffffffff1673ffffffffffffffffffffffffffffffffffffffff168152602001908152602001600020600084815260200190815260200160002054905080600660008773ffffffffffffffffffffffffffffffffffffffff1673ffffffffffffffffffffffffffffffffffffffff168152602001908152602001600020600084815260200190815260200160002081905550816007600083815260200190815260200160002081905550505b6007600084815260200190815260200160002060009055600660008573ffffffffffffffffffffffffffffffffffffffff1673ffffffffffffffffffffffffffffffffffffffff16815260200190815260200160002060008381526020019081526020016000206000905550505050565b60006001600880549050611f7c9190613672565b9050600060096000848152602001908152602001600020549050600060088381548110611fac57611fab61301e565b5b906000526020600020015490508060088381548110611fce57611fcd61301e565b5b90600052602060002001819055508160096000838152602001908152602001600020819055506009600085815260200190815260200160002060009055600880548061201d5761201c6136a6565b5b6001900381819060005260206000200160009055905550505050565b6000612044836109ae565b905081600660008573ffffffffffffffffffffffffffffffffffffffff1673ffffffffffffffffffffffffffffffffffffffff168152602001908152602001600020600083815260200190815260200160002081905550806007600084815260200190815260200160002081905550505050565b60606120de8273ffffffffffffffffffffffffffffffffffffffff16601460ff166120e5565b9050919050565b6060600060028360026120f891906136d5565b6121029190613717565b67ffffffffffffffff81111561211b5761211a612a64565b5b6040519080825280601f01601f19166020018201604052801561214d5781602001600182028036833780820191505090505b5090507f3000000000000000000000000000000000000000000000000000000000000000816000815181106121855761218461301e565b5b60200101907effffffffffffffffffffffffffffffffffffffffffffffffffffffffffffff1916908160001a9053507f7800000000000000000000000000000000000000000000000000000000000000816001815181106121e9576121e861301e565b5b60200101907effffffffffffffffffffffffffffffffffffffffffffffffffffffffffffff1916908160001a9053506000600184600261222991906136d5565b6122339190613717565b90505b60018111156122d3577f3031323334353637383961626364656600000000000000000000000000000000600f8616601081106122755761227461301e565b5b1a60f81b82828151811061228c5761228b61301e565b5b60200101907effffffffffffffffffffffffffffffffffffffffffffffffffffffffffffff1916908160001a905350600485901c9450806122cc9061374b565b9050612236565b5060008414612317576040517f08c379a000000000000000000000000000000000000000000000000000000000815260040161230e906137c0565b60405180910390fd5b8091505092915050565b600073ffffffffffffffffffffffffffffffffffffffff168273ffffffffffffffffffffffffffffffffffffffff1603612390576040517f08c379a00000000000000000000000000000000000000000000000000000000081526004016123879061382c565b60405180910390fd5b6123998161176b565b156123d9576040517f08c379a00000000000000000000000000000000000000000000000000000000081526004016123d090613898565b60405180910390fd5b6123e76000838360016117ac565b6123f08161176b565b15612430576040517f08c379a000000000000000000000000000000000000000000000000000000000815260040161242790613898565b60405180910390fd5b6001600360008473ffffffffffffffffffffffffffffffffffffffff1673ffffffffffffffffffffffffffffffffffffffff16815260200190815260200160002060008282540192505081905550816002600083815260200190815260200160002060006101000a81548173ffffffffffffffffffffffffffffffffffffffff021916908373ffffffffffffffffffffffffffffffffffffffff160217905550808273ffffffffffffffffffffffffffffffffffffffff16600073ffffffffffffffffffffffffffffffffffffffff167fddf252ad1be2c89b69c2b068fc378daa952ba7f163c4a11628f55a4df523b3ef60405160405180910390a461253a60008383600161190a565b5050565b6000808273ffffffffffffffffffffffffffffffffffffffff163b119050919050565b60007f01ffc9a7000000000000000000000000000000000000000000000000000000007bffffffffffffffffffffffffffffffffffffffffffffffffffffffff1916827bffffffffffffffffffffffffffffffffffffffffffffffffffffffff1916149050919050565b6000604051905090565b600080fd5b600080fd5b60007fffffffff0000000000000000000000000000000000000000000000000000000082169050919050565b612614816125df565b811461261f57600080fd5b50565b6000813590506126318161260b565b92915050565b60006020828403121561264d5761264c6125d5565b5b600061265b84828501612622565b91505092915050565b60008115159050919050565b61267981612664565b82525050565b60006020820190506126946000830184612670565b92915050565b600081519050919050565b600082825260208201905092915050565b60005b838110156126d45780820151818401526020810190506126b9565b60008484015250505050565b6000601f19601f8301169050919050565b60006126fc8261269a565b61270681856126a5565b93506127168185602086016126b6565b61271f816126e0565b840191505092915050565b6000602082019050818103600083015261274481846126f1565b905092915050565b6000819050919050565b61275f8161274c565b811461276a57600080fd5b50565b60008135905061277c81612756565b92915050565b600060208284031215612798576127976125d5565b5b60006127a68482850161276d565b91505092915050565b600073ffffffffffffffffffffffffffffffffffffffff82169050919050565b60006127da826127af565b9050919050565b6127ea816127cf565b82525050565b600060208201905061280560008301846127e1565b92915050565b612814816127cf565b811461281f57600080fd5b50565b6000813590506128318161280b565b92915050565b6000806040838503121561284e5761284d6125d5565b5b600061285c85828601612822565b925050602061286d8582860161276d565b9150509250929050565b6128808161274c565b82525050565b600060208201905061289b6000830184612877565b92915050565b6000806000606084860312156128ba576128b96125d5565b5b60006128c886828701612822565b93505060206128d986828701612822565b92505060406128ea8682870161276d565b9150509250925092565b6000819050919050565b612907816128f4565b811461291257600080fd5b50565b600081359050612924816128fe565b92915050565b6000602082840312156129405761293f6125d5565b5b600061294e84828501612915565b91505092915050565b612960816128f4565b82525050565b600060208201905061297b6000830184612957565b92915050565b60008060408385031215612998576129976125d5565b5b60006129a685828601612915565b92505060206129b785828601612822565b9150509250929050565b6000602082840312156129d7576129d66125d5565b5b60006129e584828501612822565b91505092915050565b6129f781612664565b8114612a0257600080fd5b50565b600081359050612a14816129ee565b92915050565b60008060408385031215612a3157612a306125d5565b5b6000612a3f85828601612822565b9250506020612a5085828601612a05565b9150509250929050565b600080fd5b600080fd5b7f4e487b7100000000000000000000000000000000000000000000000000000000600052604160045260246000fd5b612a9c826126e0565b810181811067ffffffffffffffff82111715612abb57612aba612a64565b5b80604052505050565b6000612ace6125cb565b9050612ada8282612a93565b919050565b600067ffffffffffffffff821115612afa57612af9612a64565b5b612b03826126e0565b9050602081019050919050565b82818337600083830152505050565b6000612b32612b2d84612adf565b612ac4565b905082815260208101848484011115612b4e57612b4d612a5f565b5b612b59848285612b10565b509392505050565b600082601f830112612b7657612b75612a5a565b5b8135612b86848260208601612b1f565b91505092915050565b60008060008060808587031215612ba957612ba86125d5565b5b6000612bb787828801612822565b9450506020612bc887828801612822565b9350506040612bd98782880161276d565b925050606085013567ffffffffffffffff811115612bfa57612bf96125da565b5b612c0687828801612b61565b91505092959194509250565b60008060408385031215612c2957612c286125d5565b5b6000612c3785828601612822565b9250506020612c4885828601612822565b9150509250929050565b7f4e487b7100000000000000000000000000000000000000000000000000000000600052602260045260246000fd5b60006002820490506001821680612c9957607f821691505b602082108103612cac57612cab612c52565b5b50919050565b7f4552433732313a20617070726f76616c20746f2063757272656e74206f776e6560008201527f7200000000000000000000000000000000000000000000000000000000000000602082015250565b6000612d0e6021836126a5565b9150612d1982612cb2565b604082019050919050565b60006020820190508181036000830152612d3d81612d01565b9050919050565b7f4552433732313a20617070726f76652063616c6c6572206973206e6f7420746f60008201527f6b656e206f776e6572206f7220617070726f76656420666f7220616c6c000000602082015250565b6000612da0603d836126a5565b9150612dab82612d44565b604082019050919050565b60006020820190508181036000830152612dcf81612d93565b9050919050565b7f4552433732313a2063616c6c6572206973206e6f7420746f6b656e206f776e6560008201527f72206f7220617070726f76656400000000000000000000000000000000000000602082015250565b6000612e32602d836126a5565b9150612e3d82612dd6565b604082019050919050565b60006020820190508181036000830152612e6181612e25565b9050919050565b7f455243373231456e756d657261626c653a206f776e657220696e646578206f7560008201527f74206f6620626f756e6473000000000000000000000000000000000000000000602082015250565b6000612ec4602b836126a5565b9150612ecf82612e68565b604082019050919050565b60006020820190508181036000830152612ef381612eb7565b9050919050565b7f416363657373436f6e74726f6c3a2063616e206f6e6c792072656e6f756e636560008201527f20726f6c657320666f722073656c660000000000000000000000000000000000602082015250565b6000612f56602f836126a5565b9150612f6182612efa565b604082019050919050565b60006020820190508181036000830152612f8581612f49565b9050919050565b7f455243373231456e756d657261626c653a20676c6f62616c20696e646578206f60008201527f7574206f6620626f756e64730000000000000000000000000000000000000000602082015250565b6000612fe8602c836126a5565b9150612ff382612f8c565b604082019050919050565b6000602082019050818103600083015261301781612fdb565b9050919050565b7f4e487b7100000000000000000000000000000000000000000000000000000000600052603260045260246000fd5b7f4552433732313a20696e76616c696420746f6b656e2049440000000000000000600082015250565b60006130836018836126a5565b915061308e8261304d565b602082019050919050565b600060208201905081810360008301526130b281613076565b9050919050565b7f4552433732313a2061646472657373207a65726f206973206e6f74206120766160008201527f6c6964206f776e65720000000000000000000000000000000000000000000000602082015250565b60006131156029836126a5565b9150613120826130b9565b604082019050919050565b6000602082019050818103600083015261314481613108565b9050919050565b600081905092915050565b60006131618261269a565b61316b818561314b565b935061317b8185602086016126b6565b80840191505092915050565b60006131938285613156565b915061319f8284613156565b91508190509392505050565b7f4552433732313a207472616e736665722066726f6d20696e636f72726563742060008201527f6f776e6572000000000000000000000000000000000000000000000000000000602082015250565b60006132076025836126a5565b9150613212826131ab565b604082019050919050565b60006020820190508181036000830152613236816131fa565b9050919050565b7f4552433732313a207472616e7366657220746f20746865207a65726f2061646460008201527f7265737300000000000000000000000000000000000000000000000000000000602082015250565b60006132996024836126a5565b91506132a48261323d565b604082019050919050565b600060208201905081810360008301526132c88161328c565b9050919050565b7f4552433732313a20617070726f766520746f2063616c6c657200000000000000600082015250565b60006133056019836126a5565b9150613310826132cf565b602082019050919050565b60006020820190508181036000830152613334816132f8565b9050919050565b7f4552433732313a207472616e7366657220746f206e6f6e20455243373231526560008201527f63656976657220696d706c656d656e7465720000000000000000000000000000602082015250565b60006133976032836126a5565b91506133a28261333b565b604082019050919050565b600060208201905081810360008301526133c68161338a565b9050919050565b7f4e487b7100000000000000000000000000000000000000000000000000000000600052601260045260246000fd5b7f455243373231456e756d657261626c653a20636f6e736563757469766520747260008201527f616e7366657273206e6f7420737570706f727465640000000000000000000000602082015250565b60006134586035836126a5565b9150613463826133fc565b604082019050919050565b600060208201905081810360008301526134878161344b565b9050919050565b7f416363657373436f6e74726f6c3a206163636f756e7420000000000000000000600082015250565b60006134c460178361314b565b91506134cf8261348e565b601782019050919050565b7f206973206d697373696e6720726f6c6520000000000000000000000000000000600082015250565b600061351060118361314b565b915061351b826134da565b601182019050919050565b6000613531826134b7565b915061353d8285613156565b915061354882613503565b91506135548284613156565b91508190509392505050565b600081519050919050565b600082825260208201905092915050565b600061358782613560565b613591818561356b565b93506135a18185602086016126b6565b6135aa816126e0565b840191505092915050565b60006080820190506135ca60008301876127e1565b6135d760208301866127e1565b6135e46040830185612877565b81810360608301526135f6818461357c565b905095945050505050565b6000815190506136108161260b565b92915050565b60006020828403121561362c5761362b6125d5565b5b600061363a84828501613601565b91505092915050565b7f4e487b7100000000000000000000000000000000000000000000000000000000600052601160045260246000fd5b600061367d8261274c565b91506136888361274c565b92508282039050818111156136a05761369f613643565b5b92915050565b7f4e487b7100000000000000000000000000000000000000000000000000000000600052603160045260246000fd5b60006136e08261274c565b91506136eb8361274c565b92508282026136f98161274c565b915082820484148315176137105761370f613643565b5b5092915050565b60006137228261274c565b915061372d8361274c565b925082820190508082111561374557613744613643565b5b92915050565b60006137568261274c565b91506000820361376957613768613643565b5b600182039050919050565b7f537472696e67733a20686578206c656e67746820696e73756666696369656e74600082015250565b60006137aa6020836126a5565b91506137b582613774565b602082019050919050565b600060208201905081810360008301526137d98161379d565b9050919050565b7f4552433732313a206d696e7420746f20746865207a65726f2061646472657373600082015250565b60006138166020836126a5565b9150613821826137e0565b602082019050919050565b6000602082019050818103600083015261384581613809565b9050919050565b7f4552433732313a20746f6b656e20616c7265616479206d696e74656400000000600082015250565b6000613882601c836126a5565b915061388d8261384c565b602082019050919050565b600060208201905081810360008301526138b181613875565b905091905056fea2646970667358221220433826e896f008cb8618c12ce253f3a80ee107ef36a462297deaae1a433c17e264736f6c63430008120033",
  "linkReferences": {},
  "deployedLinkReferences": {}
}