{
  "address": "0xFe9ae2907dCdED590a4f38f5A9b3De2EbD8C9249",
  "abi": [
    {
      "inputs": [
        {
          "internalType": "contract IERC721",
          "name": "_token",
          "type": "address"
        }
      ],
      "stateMutability": "nonpayable",
      "type": "constructor"
    },
    {
      "anonymous": false,
      "inputs": [
        {
          "indexed": false,
          "internalType": "address",
          "name": "from",
          "type": "address"
        },
        {
          "indexed": false,
          "internalType": "uint256",
          "name": "networkId",
          "type": "uint256"
        },
        {
          "indexed": false,
          "internalType": "uint256",
          "name": "tokenId",
          "type": "uint256"
        }
      ],
      "name": "BridgeToL2",
      "type": "event"
    },
    {
      "inputs": [
        {
          "internalType": "uint256",
          "name": "_networkId",
          "type": "uint256"
        },
        {
          "internalType": "uint256",
          "name": "_tokenId",
          "type": "uint256"
        }
      ],
      "name": "bridgeToL2",
      "outputs": [],
      "stateMutability": "nonpayable",
      "type": "function"
    },
    {
      "inputs": [
        {
          "internalType": "address",
          "name": "",
          "type": "address"
        },
        {
          "internalType": "address",
          "name": "",
          "type": "address"
        },
        {
          "internalType": "uint256",
          "name": "",
          "type": "uint256"
        },
        {
          "internalType": "bytes",
          "name": "",
          "type": "bytes"
        }
      ],
      "name": "onERC721Received",
      "outputs": [
        {
          "internalType": "bytes4",
          "name": "",
          "type": "bytes4"
        }
      ],
      "stateMutability": "nonpayable",
      "type": "function"
    },
    {
      "inputs": [],
      "name": "token",
      "outputs": [
        {
          "internalType": "contract IERC721",
          "name": "",
          "type": "address"
        }
      ],
      "stateMutability": "view",
      "type": "function"
    },
    {
      "inputs": [
        {
          "internalType": "uint256",
          "name": "_tokenId",
          "type": "uint256"
        },
        {
          "internalType": "address",
          "name": "_to",
          "type": "address"
        }
      ],
      "name": "unbridge",
      "outputs": [],
      "stateMutability": "nonpayable",
      "type": "function"
    }
  ],
  "transactionHash": "0xdf4b2f25720643081718d1ff14a75498ba95cbba51d4867f732419b490550fb5",
  "args": [
    "0xD0aF11B17499baA91849512B41d8C12C8C2D5a35"
  ],
  "numDeployments": 1,
  "solcInputHash": "0d25b9ed61156364b0e252fcaf00dbbe",
  "bytecode": "0x608060405234801561001057600080fd5b50604051610737380380610737833981810160405281019061003291906100ed565b806000806101000a81548173ffffffffffffffffffffffffffffffffffffffff021916908373ffffffffffffffffffffffffffffffffffffffff1602179055505061011a565b600080fd5b600073ffffffffffffffffffffffffffffffffffffffff82169050919050565b60006100a88261007d565b9050919050565b60006100ba8261009d565b9050919050565b6100ca816100af565b81146100d557600080fd5b50565b6000815190506100e7816100c1565b92915050565b60006020828403121561010357610102610078565b5b6000610111848285016100d8565b91505092915050565b61060e806101296000396000f3fe608060405234801561001057600080fd5b506004361061004c5760003560e01c806302b47cb214610051578063150b7a021461006d578063553b5d9c1461009d578063fc0c546a146100b9575b600080fd5b61006b600480360381019061006691906102b1565b6100d7565b005b610087600480360381019061008291906103b4565b6101a5565b6040516100949190610477565b60405180910390f35b6100b760048036038101906100b29190610492565b6101ba565b005b6100c161024d565b6040516100ce9190610531565b60405180910390f35b60008054906101000a900473ffffffffffffffffffffffffffffffffffffffff1673ffffffffffffffffffffffffffffffffffffffff166342842e0e3330846040518463ffffffff1660e01b81526004016101349392919061056a565b600060405180830381600087803b15801561014e57600080fd5b505af1158015610162573d6000803e3d6000fd5b505050507f18be74c702ad73ecd2535e47f17075cd1e2c1e1d4ae17c34030c5ff47dfc3728338383604051610199939291906105a1565b60405180910390a15050565b600063150b7a0260e01b905095945050505050565b60008054906101000a900473ffffffffffffffffffffffffffffffffffffffff1673ffffffffffffffffffffffffffffffffffffffff166342842e0e3083856040518463ffffffff1660e01b81526004016102179392919061056a565b600060405180830381600087803b15801561023157600080fd5b505af1158015610245573d6000803e3d6000fd5b505050505050565b60008054906101000a900473ffffffffffffffffffffffffffffffffffffffff1681565b600080fd5b600080fd5b6000819050919050565b61028e8161027b565b811461029957600080fd5b50565b6000813590506102ab81610285565b92915050565b600080604083850312156102c8576102c7610271565b5b60006102d68582860161029c565b92505060206102e78582860161029c565b9150509250929050565b600073ffffffffffffffffffffffffffffffffffffffff82169050919050565b600061031c826102f1565b9050919050565b61032c81610311565b811461033757600080fd5b50565b60008135905061034981610323565b92915050565b600080fd5b600080fd5b600080fd5b60008083601f8401126103745761037361034f565b5b8235905067ffffffffffffffff81111561039157610390610354565b5b6020830191508360018202830111156103ad576103ac610359565b5b9250929050565b6000806000806000608086880312156103d0576103cf610271565b5b60006103de8882890161033a565b95505060206103ef8882890161033a565b94505060406104008882890161029c565b935050606086013567ffffffffffffffff81111561042157610420610276565b5b61042d8882890161035e565b92509250509295509295909350565b60007fffffffff0000000000000000000000000000000000000000000000000000000082169050919050565b6104718161043c565b82525050565b600060208201905061048c6000830184610468565b92915050565b600080604083850312156104a9576104a8610271565b5b60006104b78582860161029c565b92505060206104c88582860161033a565b9150509250929050565b6000819050919050565b60006104f76104f26104ed846102f1565b6104d2565b6102f1565b9050919050565b6000610509826104dc565b9050919050565b600061051b826104fe565b9050919050565b61052b81610510565b82525050565b60006020820190506105466000830184610522565b92915050565b61055581610311565b82525050565b6105648161027b565b82525050565b600060608201905061057f600083018661054c565b61058c602083018561054c565b610599604083018461055b565b949350505050565b60006060820190506105b6600083018661054c565b6105c3602083018561055b565b6105d0604083018461055b565b94935050505056fea26469706673582212206ef7b6a13c0753451e4b72d1610d17cfa89539cd0526234e3920df72429ed74964736f6c63430008120033",
  "devdoc": {
    "author": "OnGrid Dev Team*",
    "kind": "dev",
    "methods": {
      "bridgeToL2(uint256,uint256)": {
        "details": "Withdraws NFT to replicate it on L2 side",
        "params": {
          "_networkId": "destination L2 network",
          "_tokenId": "token id to bridge"
        }
      },
      "unbridge(uint256,address)": {
        "details": "Returns NFT back when bridging from L2 to L1",
        "params": {
          "_to": "destination address",
          "_tokenId": "token id to unbridge"
        }
      }
    },
    "title": "L1BridgeRouter",
    "version": 1
  },
  "userdoc": {
    "kind": "user",
    "methods": {},
    "version": 1
  },
  "storageLayout": {
    "storage": [
      {
        "astId": 3354,
        "contract": "contracts/L1BridgeRouter.sol:L1BridgeRouter",
        "label": "token",
        "offset": 0,
        "slot": "0",
        "type": "t_contract(IERC721)1431"
      }
    ],
    "types": {
      "t_contract(IERC721)1431": {
        "encoding": "inplace",
        "label": "contract IERC721",
        "numberOfBytes": "20"
      }
    }
  }
}