{
  "address": "0x24F05AAc6837727012226B5c0Bf87BdeF3ae97A4",
  "abi": [
    {
      "inputs": [
        {
          "internalType": "address",
          "name": "_l1Messenger",
          "type": "address"
        }
      ],
      "stateMutability": "nonpayable",
      "type": "constructor"
    },
    {
      "inputs": [
        {
          "internalType": "uint256",
          "name": "_tokenId",
          "type": "uint256"
        },
        {
          "internalType": "address",
          "name": "_to",
          "type": "address"
        }
      ],
      "name": "sendMessage",
      "outputs": [],
      "stateMutability": "payable",
      "type": "function"
    }
  ],
  "transactionHash": "0xfdff7b391091ee16427280f527340ad54bfa36d9522bd3c5415f5d513bed1b94",
  "args": [
    "0x5260e38080BFe97e6C4925d9209eCc5f964373b6"
  ],
  "numDeployments": 9,
  "solcInputHash": "d573f576e60495a7dc03c91d9fad4e3e",
  "bytecode": "0x608060405234801561001057600080fd5b5060405161033e38038061033e833981810160405281019061003291906100db565b806000806101000a81548173ffffffffffffffffffffffffffffffffffffffff021916908373ffffffffffffffffffffffffffffffffffffffff16021790555050610108565b600080fd5b600073ffffffffffffffffffffffffffffffffffffffff82169050919050565b60006100a88261007d565b9050919050565b6100b88161009d565b81146100c357600080fd5b50565b6000815190506100d5816100af565b92915050565b6000602082840312156100f1576100f0610078565b5b60006100ff848285016100c6565b91505092915050565b610227806101176000396000f3fe60806040526004361061001e5760003560e01c80634fb0ffa414610023575b600080fd5b61003d6004803603810190610038919061016a565b61003f565b005b60008054906101000a900473ffffffffffffffffffffffffffffffffffffffff1673ffffffffffffffffffffffffffffffffffffffff16634fb0ffa43484846040518463ffffffff1660e01b815260040161009b9291906101c8565b6000604051808303818588803b1580156100b457600080fd5b505af11580156100c8573d6000803e3d6000fd5b50505050505050565b600080fd5b6000819050919050565b6100e9816100d6565b81146100f457600080fd5b50565b600081359050610106816100e0565b92915050565b600073ffffffffffffffffffffffffffffffffffffffff82169050919050565b60006101378261010c565b9050919050565b6101478161012c565b811461015257600080fd5b50565b6000813590506101648161013e565b92915050565b60008060408385031215610181576101806100d1565b5b600061018f858286016100f7565b92505060206101a085828601610155565b9150509250929050565b6101b3816100d6565b82525050565b6101c28161012c565b82525050565b60006040820190506101dd60008301856101aa565b6101ea60208301846101b9565b939250505056fea264697066735822122098a99e87cc7ac0a44415776f071447193339b273e6bcf032e46bc58a73982d6464736f6c63430008120033",
  "devdoc": {
    "kind": "dev",
    "methods": {},
    "version": 1
  },
  "userdoc": {
    "kind": "user",
    "methods": {},
    "version": 1
  },
  "storageLayout": {
    "storage": [
      {
        "astId": 28,
        "contract": "contracts/L1Contract.sol:L1Contract",
        "label": "l1Messenger",
        "offset": 0,
        "slot": "0",
        "type": "t_address"
      }
    ],
    "types": {
      "t_address": {
        "encoding": "inplace",
        "label": "address",
        "numberOfBytes": "20"
      }
    }
  }
}