{
  "address": "0x031081EC924147bE9410CE4EEB705Dc96EF5A27F",
  "abi": [
    {
      "inputs": [
        {
          "internalType": "address",
          "name": "_l1Contract",
          "type": "address"
        },
        {
          "internalType": "address",
          "name": "_l2Messenger",
          "type": "address"
        }
      ],
      "stateMutability": "nonpayable",
      "type": "constructor"
    },
    {
      "anonymous": false,
      "inputs": [
        {
          "indexed": false,
          "internalType": "uint256",
          "name": "_tokentId",
          "type": "uint256"
        },
        {
          "indexed": false,
          "internalType": "address",
          "name": "_to",
          "type": "address"
        }
      ],
      "name": "ReceiveMessage",
      "type": "event"
    },
    {
      "inputs": [],
      "name": "greet",
      "outputs": [
        {
          "internalType": "string",
          "name": "",
          "type": "string"
        }
      ],
      "stateMutability": "view",
      "type": "function"
    },
    {
      "inputs": [
        {
          "internalType": "uint256",
          "name": "_tokenId",
          "type": "uint256"
        },
        {
          "internalType": "address",
          "name": "_to",
          "type": "address"
        }
      ],
      "name": "receiveMessage",
      "outputs": [],
      "stateMutability": "nonpayable",
      "type": "function"
    },
    {
      "inputs": [
        {
          "internalType": "string",
          "name": "_greeting",
          "type": "string"
        }
      ],
      "name": "setGreeting",
      "outputs": [],
      "stateMutability": "nonpayable",
      "type": "function"
    },
    {
      "inputs": [],
      "name": "to",
      "outputs": [
        {
          "internalType": "address",
          "name": "",
          "type": "address"
        }
      ],
      "stateMutability": "view",
      "type": "function"
    },
    {
      "inputs": [],
      "name": "tokenId",
      "outputs": [
        {
          "internalType": "uint256",
          "name": "",
          "type": "uint256"
        }
      ],
      "stateMutability": "view",
      "type": "function"
    }
  ],
  "transactionHash": "0x8e6332002486ba800269dd3d6472f402fa3041854bdaa8dd1f9498c77cd2647e",
  "args": [
    "0x24F05AAc6837727012226B5c0Bf87BdeF3ae97A4",
    "0xb75d7e84517e1504C151B270255B087Fd746D34C"
  ],
  "numDeployments": 2,
  "solcInputHash": "d573f576e60495a7dc03c91d9fad4e3e",
  "bytecode": "0x608060405234801561001057600080fd5b50604051610be0380380610be08339818101604052810190610032919061011e565b81600160006101000a81548173ffffffffffffffffffffffffffffffffffffffff021916908373ffffffffffffffffffffffffffffffffffffffff16021790555080600260006101000a81548173ffffffffffffffffffffffffffffffffffffffff021916908373ffffffffffffffffffffffffffffffffffffffff160217905550505061015e565b600080fd5b600073ffffffffffffffffffffffffffffffffffffffff82169050919050565b60006100eb826100c0565b9050919050565b6100fb816100e0565b811461010657600080fd5b50565b600081519050610118816100f2565b92915050565b60008060408385031215610135576101346100bb565b5b600061014385828601610109565b925050602061015485828601610109565b9150509250929050565b610a738061016d6000396000f3fe608060405234801561001057600080fd5b50600436106100575760003560e01c8063131519811461005c57806317d70f7c1461007a578063a413686214610098578063af30d3a1146100b4578063cfae3217146100d0575b600080fd5b6100646100ee565b60405161007191906103c9565b60405180910390f35b610082610114565b60405161008f91906103fd565b60405180910390f35b6100b260048036038101906100ad9190610572565b61011a565b005b6100ce60048036038101906100c99190610613565b610271565b005b6100d86102f6565b6040516100e591906106d2565b60405180910390f35b600460009054906101000a900473ffffffffffffffffffffffffffffffffffffffff1681565b60035481565b600260009054906101000a900473ffffffffffffffffffffffffffffffffffffffff1673ffffffffffffffffffffffffffffffffffffffff163373ffffffffffffffffffffffffffffffffffffffff161461017457600080fd5b600260009054906101000a900473ffffffffffffffffffffffffffffffffffffffff1673ffffffffffffffffffffffffffffffffffffffff16636e296e456040518163ffffffff1660e01b8152600401602060405180830381865afa1580156101e1573d6000803e3d6000fd5b505050506040513d601f19601f820116820180604052508101906102059190610709565b73ffffffffffffffffffffffffffffffffffffffff16600160009054906101000a900473ffffffffffffffffffffffffffffffffffffffff1673ffffffffffffffffffffffffffffffffffffffff161461025e57600080fd5b806000908161026d9190610942565b5050565b8160038190555080600460006101000a81548173ffffffffffffffffffffffffffffffffffffffff021916908373ffffffffffffffffffffffffffffffffffffffff1602179055507f89a79516f07a1a3752c3324bfb01403e9600e99249964e22ade340f5b162574c82826040516102ea929190610a14565b60405180910390a15050565b60606000805461030590610765565b80601f016020809104026020016040519081016040528092919081815260200182805461033190610765565b801561037e5780601f106103535761010080835404028352916020019161037e565b820191906000526020600020905b81548152906001019060200180831161036157829003601f168201915b5050505050905090565b600073ffffffffffffffffffffffffffffffffffffffff82169050919050565b60006103b382610388565b9050919050565b6103c3816103a8565b82525050565b60006020820190506103de60008301846103ba565b92915050565b6000819050919050565b6103f7816103e4565b82525050565b600060208201905061041260008301846103ee565b92915050565b6000604051905090565b600080fd5b600080fd5b600080fd5b600080fd5b6000601f19601f8301169050919050565b7f4e487b7100000000000000000000000000000000000000000000000000000000600052604160045260246000fd5b61047f82610436565b810181811067ffffffffffffffff8211171561049e5761049d610447565b5b80604052505050565b60006104b1610418565b90506104bd8282610476565b919050565b600067ffffffffffffffff8211156104dd576104dc610447565b5b6104e682610436565b9050602081019050919050565b82818337600083830152505050565b6000610515610510846104c2565b6104a7565b90508281526020810184848401111561053157610530610431565b5b61053c8482856104f3565b509392505050565b600082601f8301126105595761055861042c565b5b8135610569848260208601610502565b91505092915050565b60006020828403121561058857610587610422565b5b600082013567ffffffffffffffff8111156105a6576105a5610427565b5b6105b284828501610544565b91505092915050565b6105c4816103e4565b81146105cf57600080fd5b50565b6000813590506105e1816105bb565b92915050565b6105f0816103a8565b81146105fb57600080fd5b50565b60008135905061060d816105e7565b92915050565b6000806040838503121561062a57610629610422565b5b6000610638858286016105d2565b9250506020610649858286016105fe565b9150509250929050565b600081519050919050565b600082825260208201905092915050565b60005b8381101561068d578082015181840152602081019050610672565b60008484015250505050565b60006106a482610653565b6106ae818561065e565b93506106be81856020860161066f565b6106c781610436565b840191505092915050565b600060208201905081810360008301526106ec8184610699565b905092915050565b600081519050610703816105e7565b92915050565b60006020828403121561071f5761071e610422565b5b600061072d848285016106f4565b91505092915050565b7f4e487b7100000000000000000000000000000000000000000000000000000000600052602260045260246000fd5b6000600282049050600182168061077d57607f821691505b6020821081036107905761078f610736565b5b50919050565b60008190508160005260206000209050919050565b60006020601f8301049050919050565b600082821b905092915050565b6000600883026107f87fffffffffffffffffffffffffffffffffffffffffffffffffffffffffffffffff826107bb565b61080286836107bb565b95508019841693508086168417925050509392505050565b6000819050919050565b600061083f61083a610835846103e4565b61081a565b6103e4565b9050919050565b6000819050919050565b61085983610824565b61086d61086582610846565b8484546107c8565b825550505050565b600090565b610882610875565b61088d818484610850565b505050565b5b818110156108b1576108a660008261087a565b600181019050610893565b5050565b601f8211156108f6576108c781610796565b6108d0846107ab565b810160208510156108df578190505b6108f36108eb856107ab565b830182610892565b50505b505050565b600082821c905092915050565b6000610919600019846008026108fb565b1980831691505092915050565b60006109328383610908565b9150826002028217905092915050565b61094b82610653565b67ffffffffffffffff81111561096457610963610447565b5b61096e8254610765565b6109798282856108b5565b600060209050601f8311600181146109ac576000841561099a578287015190505b6109a48582610926565b865550610a0c565b601f1984166109ba86610796565b60005b828110156109e2578489015182556001820191506020850194506020810190506109bd565b868310156109ff57848901516109fb601f891682610908565b8355505b6001600288020188555050505b505050505050565b6000604082019050610a2960008301856103ee565b610a3660208301846103ba565b939250505056fea264697066735822122031244c4d962d6c5f235286eda9a5bb59a42abe927cf9a59fe425b4c94e75f20464736f6c63430008120033",
  "devdoc": {
    "kind": "dev",
    "methods": {},
    "version": 1
  },
  "userdoc": {
    "kind": "user",
    "methods": {},
    "version": 1
  },
  "storageLayout": {
    "storage": [
      {
        "astId": 63,
        "contract": "contracts/L2Contract.sol:L2Contract",
        "label": "greeting",
        "offset": 0,
        "slot": "0",
        "type": "t_string_storage"
      },
      {
        "astId": 65,
        "contract": "contracts/L2Contract.sol:L2Contract",
        "label": "l1Contract",
        "offset": 0,
        "slot": "1",
        "type": "t_address"
      },
      {
        "astId": 67,
        "contract": "contracts/L2Contract.sol:L2Contract",
        "label": "l2Messenger",
        "offset": 0,
        "slot": "2",
        "type": "t_address"
      },
      {
        "astId": 69,
        "contract": "contracts/L2Contract.sol:L2Contract",
        "label": "tokenId",
        "offset": 0,
        "slot": "3",
        "type": "t_uint256"
      },
      {
        "astId": 71,
        "contract": "contracts/L2Contract.sol:L2Contract",
        "label": "to",
        "offset": 0,
        "slot": "4",
        "type": "t_address"
      }
    ],
    "types": {
      "t_address": {
        "encoding": "inplace",
        "label": "address",
        "numberOfBytes": "20"
      },
      "t_string_storage": {
        "encoding": "bytes",
        "label": "string",
        "numberOfBytes": "32"
      },
      "t_uint256": {
        "encoding": "inplace",
        "label": "uint256",
        "numberOfBytes": "32"
      }
    }
  }
}